:100000000C9475010C949D010C949D010C949D0120
:100010000C949D010C949D010C949D010C949D01E8
:100020000C949D010C949D010C9429050C94B00531
:100030000C949D010C949D010C949D010C949D01C8
:100040000C949D010C949D010C949D010C949D01B8
:100050000C949D010C949D010C949D010C94E6015F
:100060000C949D010C949D010C949D010C949D0198
:100070000C949D010C949D010C949D010C949D0188
:100080000C949D010C949D010C949D010C949D0178
:100090000C949D010C949D010C949D010C949D0168
:1000A0000C949D010C949D010C949D010000000096
:1000B000240027002A002D00300000000000250049
:1000C00028002B002E003100000000002300260035
:1000D00029002C002F000404040404030405020278
:1000E00002020403020202020606060606060404D1
:1000F00002020204040802011040804010204080E7
:10010000408008020401804020100201108010206D
:1001100040400000000200080E0000030401000B34
:1001200000000000000000000000000000000000CF
:10013000070605040100080A0B0C0D090403090455
:100140002203410072006400750069006E006F00B8
:1001500020004D006900630072006F002000200045
:1001600020001803410072006400750069006E00F1
:100170006F0020004C004C00430012010002000000
:1001800000404123378000010102000112010002FA
:10019000020000404123378000010102000100C13C
:1001A0008081C105010902A1010901A100850105A4
:1001B000091901290315002501950375018102958F
:1001C00001750581030501093009310938158125BB
:1001D0007F750895038106C0C005010906A1018548
:1001E00002050719E029E715002501750195088129
:1001F00002950175088103950675081500256505AA
:1002000007190029658100C00904020001030000EC
:100210000009210101000122650007058403400057
:100220000100000000000000002A2B280000000050
:1002300000000000000000000000000000000000BE
:10024000002C9EB4A0A1A2A434A6A7A5AE362D373B
:1002500038271E1F20212223242526B333B62EB78C
:10026000B89F8485868788898A8B8C8D8E8F9091A4
:1002700092939495969798999A9B9C9D2F3130A331
:10028000AD350405060708090A0B0C0D0E0F1011F9
:1002900012131415161718191A1B1C1DAFB1B0B57F
:1002A00000080B0002020201000904000001020222
:1002B00000000524001001052401010104240206A8
:1002C0000524060001070581031000400904010010
:1002D000020A000000070502024000000705830231
:1002E0004000000063043307860811241FBECFEFCF
:1002F000DAE0DEBFCDBF11E0A0E0B1E0E2ECF2E178
:1003000002C005900D92AA32B107D9F721E0AAE206
:10031000B1E001C01D92AB39B207E1F711E0C5E7CA
:10032000D1E004C02197FE010E945409C237D107D1
:10033000C9F70E949D030C9451090C9400000E947F
:100340005A09AF92BF92CF92DF92EF92FF920F9332
:100350001F93CF93DF936C017B018B01040F151F5B
:10036000EB015E01AE18BF08C017D10759F06991C3
:10037000D601ED91FC910190F081E02DC601099527
:10038000892B79F7C501DF91CF911F910F91FF90D4
:10039000EF90DF90CF90BF90AF90089561E08DE037
:1003A0000E946A0368EE73E080E090E00E942E02F3
:1003B00060E08DE00E946A0368EE73E080E090E008
:1003C0000C942E0261E08DE00C94DD021F920F92DE
:1003D0000FB60F9211242F933F938F939F93AF9358
:1003E000BF9380912E0190912F01A0913001B09187
:1003F0003101309132010196A11DB11D232F2D5FD6
:100400002D3720F02D570196A11DB11D20933201EB
:1004100080932E0190932F01A0933001B09331016E
:1004200080912A0190912B01A0912C01B0912D0176
:100430000196A11DB11D80932A0190932B01A093D9
:100440002C01B0932D01BF91AF919F918F913F915E
:100450002F910F900FBE0F901F9018959B01AC012C
:100460007FB7F89480912A0190912B01A0912C01E3
:10047000B0912D0166B5A89B05C06F3F19F001969C
:10048000A11DB11D7FBFBA2FA92F982F8827860FD6
:10049000911DA11DB11D62E0880F991FAA1FBB1FEE
:1004A0006A95D1F7BC012DC0FFB7F89480912A015D
:1004B00090912B01A0912C01B0912D01E6B5A89B44
:1004C00005C0EF3F19F00196A11DB11DFFBFBA2F66
:1004D000A92F982F88278E0F911DA11DB11DE2E035
:1004E000880F991FAA1FBB1FEA95D1F7861B970B90
:1004F000885E9340C8F221503040404050406851DF
:100500007C4F211531054105510571F60895789408
:1005100084B5826084BD84B5816084BD85B5826008
:1005200085BD85B5816085BDEEE6F0E080818160A6
:100530008083E1E8F0E010828081826080838081A6
:1005400081608083E0E8F0E0808181608083E1E980
:10055000F0E0808182608083808181608083E0E937
:10056000F0E0808181608083E1ECF0E08081846054
:100570008083808182608083808181608083E3ECDE
:10058000F0E0808181608083E0ECF0E08081826037
:100590008083E2ECF0E0808181608083EAE7F0E034
:1005A000808184608083808182608083808181609B
:1005B00080838081806880830895CF93DF93482F64
:1005C00050E0CA018C509F4FFC0134914A525F4F5A
:1005D000FA018491882369F190E0880F991FFC014A
:1005E000E455FF4FA591B491FC01E654FF4FC5912E
:1005F000D491662351F42FB7F8948C91932F909552
:1006000089238C93888189230BC0623061F42FB7D2
:10061000F8948C91932F909589238C938881832BC8
:1006200088832FBF06C09FB7F8948C91832B8C933F
:100630009FBFDF91CF910895883071F1893068F4C0
:10064000823031F1833020F4813009F042C01DC086
:10065000833089F08430E9F512C08B3059F18C3049
:1006600028F48930E9F08A30A1F51EC08C3031F1D0
:100670008E3079F529C0809180008F7703C08091FA
:1006800080008F7D80938000089584B58F7702C0AD
:1006900084B58F7D84BD0895809190008F7707C0C9
:1006A000809190008F7D03C080919000877F809320
:1006B000900008958091C0008F7703C08091C000A2
:1006C0008F7D8093C00008958091C200877F8093C2
:1006D000C2000895FF920F931F93F62E482F50E00B
:1006E000CA018E5E9E4FFC012491CA018C509F4F1F
:1006F000FC0114914A525F4FFA0104910023C9F0A2
:10070000222319F0822F0E941C03E02FF0E0EE0F4D
:10071000FF1FE654FF4FA591B4919FB7F894FF20B7
:1007200021F48C911095812302C08C91812B8C93A4
:100730009FBF1F910F91FF900895CF93DF930E9469
:1007400087028BE391E00E9464040E94E201C0E012
:10075000D0E00E94CE012097E1F30E940000F9CF83
:10076000282F809135018823C1F057FF1AC015C08A
:10077000289A909334018091F1008193E217F30756
:10078000B9F74115510539F08091F200882319F429
:100790008BE68093E800AFBF02C04FEF5FEFCA0166
:1007A0000895AFB7F89427702093E9008091F20084
:1007B000282F30E0241735070CF4A901FB019B0119
:1007C000240F311D94E6DACFDF93CF930F92CDB78C
:1007D000DEB7BE016F5F7F4F41E050E00E94B00383
:1007E000019719F02FEF3FEF03C08981282F30E0E8
:1007F000C9010F90CF91DF910895FF920F931F933E
:10080000F82E142F052F4091380150913901212FD6
:10081000302FC901DC01FB016EEF29C0F7FE02C0D9
:10082000949101C0908120913601309137012417B5
:100830003507ACF48091E8008570E1F38091E80021
:1008400082FF03C02FEF3FEF17C09093F100C90163
:1008500001968F739070892B11F46093E8002F5FDD
:100860003F4F3093370120933601119731961097FF
:10087000A9F6812F902F9C01C9011F910F91FF9024
:1008800008959C018091E80082FFFCCFF901260FBA
:10089000311D03C08091F1008193E217F307D1F776
:1008A000289A84E6809334018BEF8093E800CB0193
:1008B00008958093E9008091F200882319F08AE37B
:1008C0008093E800089508951092350181E08093A7
:1008D000D70080EA8093D80082E189BD09B400FE88
:1008E000FDCF61E070E080E090E00E942E0280E9A0
:1008F0008093D8008CE08093E2001092E000559A3B
:10090000209A5D98289808955F926F927F928F92B7
:100910009F92AF92BF92CF92DF92EF92FF920F938E
:100920001F93CF93DF93E82E842E752E809135018F
:10093000882371F18B01242F352FC901EC017AEF47
:10094000F72E67E0962E9E2050E4552E8E2D90E0D7
:1009500040E2A42EB12CA822B9223AE3632E20E46F
:10096000C22ED12CC822D92258C09FB7F894909299
:10097000E9008091E80085FD02C020E004C080917C
:10098000F200252D281B9FBF222361F4FA9419F44D
:100990002FEF3FEF4DC061E070E080E090E00E94FB
:1009A0002E023BC0822F90E0C817D9070CF42C2FE1
:1009B000C21BD1094FB7F8949092E900A114B10479
:1009C00021F406C01092F10021502223D9F719C05A
:1009D000E7FC03C0F801922F10C0C801322F06C0F7
:1009E000FC010196E491E093F10031503323C1F70B
:1009F00006C081918093F10091509923D1F7020FA5
:100A0000111D8091E80085FF05C0209729F4C114CD
:100A1000D10411F06092E8004FBF209709F0A5CFF4
:100A20005D9A84E680933301282D372DC9019C01FE
:100A3000C901DF91CF911F910F91FF90EF90DF904F
:100A4000CF90BF90AF909F908F907F906F905F906E
:100A500008951F920F920FB60F9211242F933F9378
:100A60004F935F936F937F938F939F93AF93BF93B6
:100A7000EF93FF938091E1001092E100982F83FFA4
:100A80000FC01092E90081E08093EB001092EC001F
:100A900082E38093ED001092350188E08093F000AE
:100AA00092FF34C083E08093E9008091F2008823B4
:100AB00019F08AE38093E8008FB7F89492E090935E
:100AC000E9009091F2008FBF992321F08DE891E029
:100AD0000E94C90880913301882351F0809133012D
:100AE00081508093330180913301882309F45D980C
:100AF00080913401882351F080913401815080939A
:100B0000340180913401882309F42898FF91EF91F2
:100B1000BF91AF919F918F917F916F915F914F9115
:100B20003F912F910F900FBE0F901F9018950F932C
:100B30001F93DF93CF930F92CDB7DEB719828E014B
:100B40000F5F1F4FC8010E94EF08C8010E943008C4
:100B5000898190E00F90CF91DF911F910F910895BF
:100B60001F920F920FB60F921124EF92FF921F93D4
:100B70002F933F934F935F936F937F938F939F93A5
:100B8000AF93BF93EF93FF93DF93CF93CDB7DEB7D0
:100B90006197DEBFCDBF1092E9008091E80083FF2E
:100BA0000FC1FE0131969E01275F3F4F03C0809128
:100BB000F1008193E217F307D1F7289A84E6809336
:100BC000340182EF8093E800998197FF05C08091FE
:100BD000E80080FFFCCF03C08EEF8093E800292F50
:100BE00030E0C90180769070892B09F0C2C08A81FB
:100BF000882329F41092F1001092F100D6C08130C0
:100C000009F4D3C0833009F4D0C0853049F4809111
:100C1000E80080FFFCCF8B8180688093E300C5C033
:100C2000863009F07CC01C81EF80F8841230C1F559
:100C30001092E9001092370110923601109239019A
:100C4000109238010E94970599E0FE013996DF0164
:100C5000292F1D922A95E9F799871A8791E09E8797
:100C600090E8988B9AEF998B20913601309137015B
:100C7000275F3F4F3C872B878D871092E9001092AA
:100C8000370110923601F0923901E092380180E08C
:100C9000BF0149E050E00E94FD030E94970585C016
:100CA0001092E9001092370110923601F09239014A
:100CB000E0923801123241F482E290E00E9428086A
:100CC000892B09F476C071C0113079F488E0E816F8
:100CD000F10419F481E080933A0180913A0188236C
:100CE00009F06BC0EAE7F1E013C0133009F061C00E
:100CF0008B81882319F4ECE3F1E00AC0823019F407
:100D0000E0E4F1E005C0813009F053C0E2E6F1E033
:100D1000449180E8BF0150E00E94FD0346C0873047
:100D200009F447C0883021F481E08093F1003DC090
:100D30008930D9F523703070232BD9F5EFE9F1E034
:100D400091E031E026E39093E9003093EB00849149
:100D50008093EC002093ED009F5F3196953099F7DA
:100D60008EE78093EA001092EA008B818093350130
:100D70001CC08F8198851092E90010923701109263
:100D8000360190933901809338018D81882329F4AD
:100D9000CE0101960E94FB0806C0823051F4CE01BC
:100DA00001960E94F906882321F08EEF8093E800D7
:100DB00007C081E28093EB0003C0ECE8F1E0A8CF2C
:100DC0006196DEBFCDBFCF91DF91FF91EF91BF91D3
:100DD000AF919F918F917F916F915F914F913F91D3
:100DE0002F911F91FF90EF900F900FBE0F901F90CB
:100DF0001895FC0191818081813A31F4913089F01C
:100E000080E0933089F40DC0813269F49B3021F485
:100E100082818093000105C09A3029F482818093F9
:100E2000010181E0089580E00895EF92FF920F9311
:100E30001F938C01E62EDC01ED91FC910480F5817D
:100E4000E02D0995F82ED801ED91FC910680F781EF
:100E5000E02DC8016E2D09958F2D90E01F910F9107
:100E6000FF90EF90089510923C0110924001109273
:100E70003F018EE091E090933E0180933D01089503
:100E8000EF92FF920F931F93DF93CF930F92CDB703
:100E9000DEB789838B017A0184E0BE016F5F7F4FEB
:100EA00041E050E00E94840484E4B801A7010E945C
:100EB00084040F90CF91DF911F910F91FF90EF90DD
:100EC000089582E048E050E00E9440070895FC0148
:100ED0001682178210861186128613861482349623
:100EE000BF010E9461070895DC01683810F068585E
:100EF00029C0E62FF0E067FF13C0E058F04081E022
:100F000090E002C0880F991FEA95E2F78095149649
:100F10002C911497282314962C93149760E012C0F8
:100F2000EF5DFD4F6491662319F420E030E01DC0B1
:100F300067FF08C014968C9114978D7F14968C933C
:100F400014976F77FD0190E0662321F08681861764
:100F500009F416829F5F31969630B1F7CD01149651
:100F6000BD010E94610721E030E0C9010895CF93DF
:100F7000DF93DC01683810F0685825C0E62FF0E0F8
:100F800067FF12C0E058F04081E090E002C0880F97
:100F9000991FEA95E2F714962C911497282B149632
:100FA0002C93149760E00FC0EF5DFD4F64916623B2
:100FB000D9F167FF08C014968C911497826014963B
:100FC0008C9314976F7716968C9116978617A9F1C4
:100FD00017968C911797861781F118968C91189710
:100FE000861759F119968C911997861731F11A962F
:100FF0008C911A97861709F11B968C911B9786176F
:10100000E1F0ED01E0E0F0E09E2F8E81882321F4F5
:10101000EA0FFB1F668306C09F5F31962196E6307C
:10102000F10591F7963049F481E090E013969C9396
:101030008E93129720E030E007C0CD011496BD01D9
:101040000E94610721E030E0C901DF91CF9108954E
:1010500080E863EA71E045E650E00E94FD030895F0
:10106000FC0180818F5F808380E868E072E049E165
:1010700050E00E94FD0308952091890130918A017A
:1010800080918B0190918C01281B390B2F7330704C
:10109000C90108952091890130918A0180918B01C5
:1010A00090918C012817390719F42FEF3FEF09C0F1
:1010B000E0918B01F0918C01E75BFE4F8081282F3E
:1010C00030E0C90108952091890130918A01809111
:1010D0008B0190918C012817390719F42FEF3FEFFE
:1010E00013C0E0918B01F0918C01E75BFE4F2081F2
:1010F00080918B0190918C0101968F7390709093E9
:101100008C0180938B0130E0C90108951092900109
:1011100010928F0188EE93E0A0E0B0E080939101FF
:1011200090939201A0939301B09394018CE191E08C
:1011300090938E0180938D0108950F931F93DF93F9
:10114000CF930F92CDB7DEB78C01698380910901EF
:10115000882369F083E0BE016F5F7F4F41E050E07C
:101160000E9484041816190614F49C0107C081E03B
:1011700090E0F8019383828320E030E0C9010F9072
:10118000CF91DF911F910F91089583E00E94590440
:101190000895CF93DF9312C082E00E94E4032FEF03
:1011A0008F3F9207C9F0E0918901F0918A01E75BD6
:1011B000FE4F8083D0938A01C0938901C091890139
:1011C000D0918A012196CF73D07080918B0190913C
:1011D0008C01C817D90701F7DF91CF910895FC0161
:1011E00080818E5F808380E861EA72E042E450E0B3
:1011F0000E94FD030895FC0181819081913A59F488
:10120000813209F04CC080E062E071E047E050E0DC
:101210000E94FD0342C0913209F041C0803239F48E
:1012200082E091E067E070E00E94410436C08232C3
:1012300009F035C08281809309018091020190916B
:101240000301A0910401B0910501805B9440A0408E
:10125000B04019F58091090180FD12C087E797E73A
:1012600090930108809300082BE088E190E00FB68E
:10127000F894A895809360000FBE209360000DC085
:1012800088E10FB6F89480936000109260000FBE62
:10129000A895109201081092000881E0089580E05E
:1012A0000895F8940C945F09EE0FFF1F0590F491D8
:1012B000E02D099481E090E0F8940C945F09F89493
:0212C000FFCF5E
:1012C200010100E10000000000000000000015071D
:1012D200A101B70774076707000000009D08A1017C
:0A12E2003C0863084A08C508C90863
:00000001FF
