:100000000C94CC000C94F4000C94F4000C94F400C8
:100010000C94F4000C94F4000C94F4000C94F40090
:100020000C94F4000C94F4000C94D4030C9443044A
:100030000C94F4000C94F4000C94F4000C94F40070
:100040000C94F4000C94F4000C94F4000C94F40060
:100050000C94B0060C94F4000C94F4000C94660616
:100060000C94F4000C94F4000C94F4000C94F40040
:100070000C94F4000C94F4000C94F4000C94F40030
:100080000C94F4000C94F4000C94F4000C94F40020
:100090000C94F4000C94F4000C94F4000C94F40010
:1000A0000C94F4000C94F4000C94F400080B00027F
:1000B0000202010009040000010202000005240000
:1000C0001001052401010104240206052406000193
:1000D0000705810310004009040100020A00000026
:1000E00007050202400000070583024000000403E8
:1000F000090412010002EF02014041233680000191
:100100000102030141726475696E6F204C4C43001B
:1001100055534220494F20426F6172640000000035
:100120000200090F0000030401000C0000000000A1
:1001300000000000000000000000000000000000BF
:10014000250028002B002E003100000000002400B4
:1001500027002A002D0030000404040404030405D1
:100160000202020204030202020206060606060654
:10017000040402020204040408020110408040103A
:1001800020408040800802040180402010020110BD
:10019000801020404020350711241FBECFEFDAE049
:1001A000DEBFCDBF11E0A0E0B1E0E2E7F1E102C0C7
:1001B00005900D92A235B107D9F721E0A2E5B1E093
:1001C00001C01D92A43CB207E1F710E0CCECD0E0F6
:1001D00004C02197FE010E94B108CB3CD107C9F7AA
:1001E0000E944A070C9478080C94000090E0FC01EF
:1001F000E958FE4F2491885A9E4FFC018491882330
:1002000099F090E0880F991FFC01E65BFE4FA591E5
:10021000B491FC01E45CFE4F859194918FB7F89402
:10022000EC91E22BEC938FBF0895EAE2F1E0249188
:10023000E4E8F1E03491E5E6F1E09491992309F4E2
:1002400030C02223E9F021502F30D0F4E22FF0E02B
:10025000E45DFE4F0C94B1085A015E013B0152016E
:100260005601400140014001610167016B016F01CE
:10027000750140017901209180002F772093800043
:10028000E92FF0E0EE0FFF1FE45CFE4FA591B49163
:100290009FB7F894EC91811132C030953E233C9386
:1002A0009FBF0895209180002F7DE8CF209180008E
:1002B000277FE4CF24B52F7724BDE2CF24B52F7D4F
:1002C000FBCF209190002F7720939000D9CF2091E1
:1002D00090002F7DF9CF20919000277FF5CF2091BE
:1002E000C0002F772093C000CBCF2091C0002F7D7E
:1002F000F9CF2091C200277F2093C200C1CF3E2BAF
:10030000CECFFC018091C301882311F13FB7F8944F
:1003100082E08093E9002091F200822F90E018168D
:10032000190614F481E090E0882339F0289844E617
:100330004093C2014091F1004083222339F0209183
:10034000F200211103C02BE62093E8003FBF08957F
:100350008FEF9FEF08952FB7F89483E08093E90023
:100360009091E800892F807295FF04C09091F2006F
:1003700080E4891B2FBF08958091BA0181110DC0BF
:1003800082E08093B60184E08093B7011092B901B6
:100390001092B80181E08093BA0186EB91E0089554
:1003A0004091B0015091B1012091AE013091AF0167
:1003B00042175307B4F49091E8009570E1F39091DF
:1003C000E80092FD19C08093F1008091B0019091F6
:1003D000B10101968F739927892B19F48EEF8093C1
:1003E000E8008091B0019091B10101969093B10124
:1003F0008093B00181E0089580E00895EF92FF922C
:100400000F931F93CF93DF93F82E192FE62E042F0F
:1004100081E0860F880F0E94D00183E00E94D00106
:10042000CF2DD12FEC0EFD2EF11CCE15DF05B9F02E
:1004300007FF13C0FE0184910E94D001182F80E0B5
:100440000E94D001812321968111EFCFDF91CF91BE
:100450001F910F91FF90EF9008958881EDCF81E07B
:10046000F5CFDF92EF92FF920F931F93CF93DF931D
:10047000D82E8A01EB017B01E40EF51ECE15DF05B7
:1004800059F0D7FE12C0FE0184910E94D00121963E
:100490008111F4CF0FEF1FEFC801DF91CF911F91B2
:1004A0000F91FF90EF90DF9008958881EECF0F932A
:1004B0001F93CF93DF931F92CDB7DEB782E089837E
:1004C00042E450E06CEA70E080E80E9431020E9451
:1004D000BC01DC0112960D911C910115110589F0EA
:1004E000D801ED91FC910280F381E02DBE016F5F98
:1004F0007F4FC801099597FD04C0F801008511855B
:10050000ECCF89810F90DF91CF911F910F910895CA
:10051000615030F02091F100FC0120830196F8CF6A
:10052000289884E68093C20108953FB7F89480919B
:10053000AA019091AB01A091AC01B091AD0126B59B
:10054000A89B05C02F3F19F00196A11DB11D3FBF0B
:10055000BA2FA92F982F8827BC01CD01620F711DDA
:10056000811D911D42E0660F771F881F991F4A95D4
:10057000D1F70895CF92DF92EF92FF920E949502F9
:100580006B017C010E9495026C197D098E099F09FF
:10059000683E734081059105A8F3FF90EF90DF90CE
:1005A000CF9008958F929F92AF92BF92CF92DF9299
:1005B000EF92FF920F931F93CF93DF936C017B0118
:1005C0008A0180910D01882309F458C08091C301EC
:1005D000882309F453C08091B40180FF05C0809145
:1005E000E00082608093E000E801B12C8AEFA82E41
:1005F00093E0892E2AE3922E209711F4BB20B9F1C3
:100600000E94AB01811106C0AA94AA20B9F10E94F0
:10061000BA02F2CF8C171D0611F00CF08C2F9FB789
:10062000F8948092E9002091E80025FD02C09FBF68
:10063000E3CF282F30E0C21BD30BF701815020F00D
:1006400041914093F100FACFE20EF31EBB2021F05E
:100650009092E800B12CEBCF8091E80085FDE7CFC8
:100660009092E800BB24B394209709F3F3CF5D98F0
:1006700084E68093B501101611063CF081E090E00D
:10068000F6019383828310E000E0C801DF91CF91EF
:100690001F910F91FF90EF90DF90CF90BF90AF90A0
:1006A0009F908F900895CF93DF931F92CDB7DEB7C1
:1006B0006983DC01ED91FC910280F381E02D41E042
:1006C00050E0BE016F5F7F4F09950F90DF91CF9192
:1006D000089583E08093E9008091F200882319F067
:1006E0008AE38093E80008950E94AB0190E00895AA
:1006F000CF93DF931F92CDB7DEB7FC01848595853C
:1007000097FD08C02FEF3FEF358724870F90DF91CB
:10071000CF910895CE0101960E948101019719F4AD
:10072000898190E0F3CF8FEF9FEFF0CF0F931F936E
:10073000CF93DF931F92CDB7DEB78C01FC01848588
:10074000958597FF0BC0CE0101960E94810101970C
:1007500071F4898190E0F80195878487F801848598
:1007600095850F90DF91CF911F910F9108958FEF95
:100770009FEFF1CFFC018485958597FD0BC09FB756
:10078000F89482E08093E9008091F2009FBF90E0AE
:10079000019608959FB7F89482E08093E9008091D4
:1007A000F2009FBF90E008951F920F920FB60F9234
:1007B00011248F939F938091E1009091E100937FAA
:1007C0009093E10083FF0FC01092E90091E09093B5
:1007D000EB001092EC0092E39093ED001092C301B5
:1007E00098E09093F00082FF22C093E09093E9009C
:1007F0009091F200992319F09AE39093E800909178
:10080000B501992341F09091B50191509093B501B4
:10081000911101C05D9A9091C201992341F090918C
:10082000C20191509093C201911101C0289A84FF96
:1008300018C08091E2008E7E81608093E2008091FA
:10084000E1008F7E8093E1008091B4018E7E806113
:100850008093B4019F918F910F900FBE0F901F90C6
:10086000189580FFF7CF8091E2008E7E80618093A3
:10087000E2008091E1008E7E8093E1008091B401DE
:100880008E7E8160E5CF1F920F920FB60F921124DA
:10089000CF92DF92EF92FF920F931F932F933F938C
:1008A0004F935F936F937F938F939F93AF93BF9378
:1008B000EF93FF93CF93DF93CDB7DEB76C97DEBF97
:1008C000CDBF1092E9008091E80083FF25C068E069
:1008D000CE0145960E94880282EF8093E8008D89C0
:1008E00087FF39C09091E80090FFFCCF982F907659
:1008F00009F034C19E894F89588D2F89F88C911148
:1009000031C0803861F58091B3018093F10010927D
:10091000F1008EEF8093E8006C960FB6F894DEBF7E
:100920000FBECDBFDF91CF91FF91EF91BF91AF91FE
:100930009F918F917F916F915F914F913F912F91F7
:100940001F910F91FF90EF90DF90CF900F900FBE0F
:100950000F901F9018959EEF9093E800C7CF1092CC
:10096000F100D5CF913059F48111D3CF41305105E9
:1009700081F68091B3018D7F8093B301CACF93300C
:1009800049F48111C6CF4130510519F68091B30168
:100990008260F2CF953041F48091E80080FFFCCF77
:1009A00020682093E300B5CF963009F0A9C00B8DE5
:1009B0001C8D22E01092E9001092B1011092B0015A
:1009C000F2122EC01092AF011092AE010E94570297
:1009D0001F8299E09983FA8291E09E8390EA98873A
:1009E0009AEF99872091B0013091B101275F3F4F75
:1009F0003C832B838D831092E9001092B1011092F9
:100A0000B0011093AF010093AE0149E050E0BE0188
:100A10006F5F7F4F80E00E9431020E94570279CFC2
:100A20001093AF010093AE010E94BC01DC0112964D
:100A30000D911C910115110509F43BC1D801ED91EF
:100A4000FC910480F581E02DBE016B5E7F4FC801F3
:100A50000995009709F028C1F80100851185EACFB2
:100A6000F3E0FF120EC08F89882309F440C0823062
:100A700061F440E86CE080E191E00E94FE018111A8
:100A800048CF81E28093EB0047CF813029F440E8E2
:100A90006BE084E091E0F1CF833099F70E94BC01D4
:100AA000DC011296ED90FC908E010F5F1F4F6801E4
:100AB000E114F10479F0D701ED91FC910680F78102
:100AC000E02DB801C7010995080F111DF701E08459
:100AD000F184EECFD8011C92F60101900020E9F7D5
:100AE0003197BF016C197D0940E0C601C6CF6EEE9B
:100AF00070E0FB01449150E080E80E94310209CF90
:100B0000973009F4BECF983021F481E08093F10052
:100B100000CF993009F0FDCE837009F0B2CFE9E43F
:100B2000F1E081E031E096E32191222371F080939E
:100B3000E9003093EB00DF0111972C912093EC003A
:100B40009093ED008F5F873079F78EE78093EA000E
:100B50001092EA008F898093C301DBCE8B8D9C8D30
:100B60001092E9001092B1011092B0019093AF0180
:100B70008093AE01898D81117DC08E899D89913AC6
:100B800049F4813209F07DCF47E050E066E071E042
:100B900080E0B3CF913209F074CF833269F48F894A
:100BA000988DB0E0A0E08093020190930301A093A0
:100BB0000401B0930501ADCE803209F080C0809170
:100BC000E80082FFFCCF67E086E091E00E948802A7
:100BD0008BEF8093E8008091B201E0E0F8E0882399
:100BE00011F0EEEFFAE08091060190910701A091DB
:100BF0000801B0910901803B9440A105B105B9F409
:100C000080910D0180FD13C0EE3F8AE0F80721F5C9
:100C100087E797E79183808388E19BE00FB6F8949C
:100C2000A895809360000FBE9093600072CE0FB6BF
:100C3000F894A8958091600088618093600010927C
:100C400060000FBEA895EE3FAAE0FA0761F410928B
:100C5000FF0A1092FE0A5DCE808191819093FF0A77
:100C60008093FE0AD5CF8091FE0A9091FF0A91836E
:100C700080834FCE0E94BC01FC01028113810115CB
:100C8000110509F4FECED801ED91FC910190F0819F
:100C9000E02DBE016B5E7F4FC8010995811139CEF1
:100CA000F80100851185EBCF181619060CF431CE2A
:100CB000E8CEF1E0FF12D4CE62EF70E01ACF8232BC
:100CC00009F027CE8F8980930D0185CF1F920F9257
:100CD0000FB60F9211242F933F938F939F93AF934F
:100CE000BF938091A6019091A701A091A801B09116
:100CF000A9013091A50123E0230F2D3758F5019666
:100D0000A11DB11D2093A5018093A6019093A70179
:100D1000A093A801B093A9018091AA019091AB0181
:100D2000A091AC01B091AD010196A11DB11D8093C0
:100D3000AA019093AB01A093AC01B093AD01BF9118
:100D4000AF919F918F913F912F910F900FBE0F9078
:100D50001F90189526E8230F0296A11DB11DD2CF32
:100D60001F920F920FB60F9211242F933F934F9320
:100D70005F936F937F938F939F93AF93BF93EF9303
:100D8000FF938091530190915401459798F0809181
:100D90005201109254011092530191E089278093DF
:100DA0005201882309F449C081E00E94150180E0C6
:100DB0000E94150180910001909101016AE070E0AC
:100DC0000E947B08E0915301F0915401EE0FFF1F48
:100DD000E25FFE4F20813181629FC001639F900DD1
:100DE000729F900D1124209152012223C9F19093FA
:100DF000890080938800809153019091540101965D
:100E000090935401809353018091000190910101CE
:100E10009093870080938600FF91EF91BF91AF91EF
:100E20009F918F917F916F915F914F913F912F9102
:100E30000F900FBE0F901F90189580910001909118
:100E400001016AE070E00E947B0820910E01309160
:100E50000F01629FC001639F900D729F900D11243E
:100E600090938B0080938A00C6CFE5E5F1E0138272
:100E7000128288EE93E0A0E0B0E084839583A6839D
:100E8000B7838AE391E0918380838FEF9FEF95870B
:100E900084870895CF93DF93CDB7DEB7A1970FB6C0
:100EA000F894DEBF0FBECDBF789484B5826084BD58
:100EB00084B5816084BD85B5826085BD85B581605E
:100EC00085BD80916E00816080936E0010928100DC
:100ED0008091810082608093810080918100816097
:100EE0008093810080918000816080938000809158
:100EF0009100826080939100809191008160809345
:100F00009100809190008160809390008091C10059
:100F100084608093C1008091C10082608093C10091
:100F20008091C10081608093C1008091C300816085
:100F30008093C3008091C00082608093C000809144
:100F4000C20081608093C20080917A0084608093A7
:100F50007A0080917A00826080937A0080917A0092
:100F6000816080937A0080917A00806880937A0013
:100F70001092C3011092B3011092B4018091D70076
:100F800081608093D70080EA8093D80089B5806122
:100F900089BD89B5826089BD09B400FEFDCF0E947C
:100FA000BA028091D8008F7C80618093D8008091B4
:100FB000E000807F8093E0008091E1008E7E80934E
:100FC000E1008DE08093E200559A209AEEEFFFE772
:100FD000859194918B3F9C4D19F481E08093B201EF
:100FE0008FEF9FEF90936201809361018DE00E94EB
:100FF000F60089E00E94F6008AE00E94F6008DE08B
:101000000E94F60088EA8093800081E1809381004D
:101010008091000190910101909387008093860058
:10102000109289001092880010928B0010928A0012
:1010300081E080936F008AE0882E912CA12CB12C46
:1010400090E0E92E90E0F92E85E591E00E94BA0348
:10105000181619060CF045C085E591E00E9478034A
:1010600020910001309101018537B1F52C593F4F96
:101070003093010120930001209100013091010182
:1010800050E040E019A28E010F5D1F4FCA01B90167
:10109000A50194010E948F08605DF80162938F01A1
:1010A000211531054105510589F7309761F001900F
:1010B0000020E9F73197AF01401B510BB80185E5DE
:1010C00091E00E94D20242E050E06FE471E085E5D9
:1010D00091E00E94D202B8CF843671F624563109CD
:1010E000C7CFE114F10409F4AFCF0E940000ACCFE8
:1010F000F8940C94B708AA1BBB1B51E107C0AA1FA8
:10110000BB1FA617B70710F0A61BB70B881F991FA8
:101110005A95A9F780959095BC01CD010895A1E25B
:101120001A2EAA1BBB1BFD010DC0AA1FBB1FEE1F61
:10113000FF1FA217B307E407F50720F0A21BB30BAC
:10114000E40BF50B661F771F881F991F1A9469F728
:1011500060957095809590959B01AC01BD01CF0184
:101160000895EE0FFF1F0590F491E02D0994F89477
:02117000FFCFAF
:10117200A00FFFFFFFFF00E10000000000000100E0
:101182000200030004000500060007000800090031
:101192000A00090008000700060005000400030019
:1011A200020001000000000000005303D202740399
:1011B2006903BA037803960300C180810000000D21
:0211C2000A0021
:00000001FF
